{
  "_format": "hh-sol-artifact-1",
  "contractName": "ZRP3Rewards",
  "sourceName": "contracts/ZRP3Rewards.sol",
  "abi": [
    {
      "inputs": [],
      "stateMutability": "nonpayable",
      "type": "constructor"
    },
    {
      "anonymous": false,
      "inputs": [
        {
          "indexed": true,
          "internalType": "address",
          "name": "user",
          "type": "address"
        },
        {
          "indexed": false,
          "internalType": "uint256",
          "name": "amount",
          "type": "uint256"
        }
      ],
      "name": "ZRPointsRequested",
      "type": "event"
    },
    {
      "inputs": [
        {
          "internalType": "address",
          "name": "user",
          "type": "address"
        }
      ],
      "name": "getZRPoints",
      "outputs": [
        {
          "internalType": "uint256",
          "name": "",
          "type": "uint256"
        }
      ],
      "stateMutability": "view",
      "type": "function"
    },
    {
      "inputs": [
        {
          "internalType": "uint256",
          "name": "amount",
          "type": "uint256"
        }
      ],
      "name": "requestZRPoints",
      "outputs": [],
      "stateMutability": "nonpayable",
      "type": "function"
    }
  ],
  "bytecode": "0x608060405234801561001057600080fd5b506100386040518060600160405280602d8152602001610846602d913961003d60201b60201c565b61021e565b6100d98160405160240161005191906101cd565b6040516020818303038152906040527f41304fac000000000000000000000000000000000000000000000000000000007bffffffffffffffffffffffffffffffffffffffffffffffffffffffff19166020820180517bffffffffffffffffffffffffffffffffffffffffffffffffffffffff83818316178352505050506100dc60201b60201c565b50565b6100fd816100f861010060201b6101db1761012160201b60201c565b60201c565b50565b60006a636f6e736f6c652e6c6f679050600080835160208501845afa505050565b61013360201b6102c017819050919050565b61013b6101ef565b565b600081519050919050565b600082825260208201905092915050565b60005b8381101561017757808201518184015260208101905061015c565b60008484015250505050565b6000601f19601f8301169050919050565b600061019f8261013d565b6101a98185610148565b93506101b9818560208601610159565b6101c281610183565b840191505092915050565b600060208201905081810360008301526101e78184610194565b905092915050565b7f4e487b7100000000000000000000000000000000000000000000000000000000600052605160045260246000fd5b6106198061022d6000396000f3fe608060405234801561001057600080fd5b50600436106100365760003560e01c8063766136f81461003b578063d1ea5e1614610057575b600080fd5b61005560048036038101906100509190610305565b610087565b005b610071600480360381019061006c9190610390565b610193565b60405161007e91906103cc565b60405180910390f35b600081116100ca576040517f08c379a00000000000000000000000000000000000000000000000000000000081526004016100c190610444565b60405180910390fd5b806000803373ffffffffffffffffffffffffffffffffffffffff1673ffffffffffffffffffffffffffffffffffffffff16815260200190815260200160002060008282546101189190610493565b925050819055503373ffffffffffffffffffffffffffffffffffffffff167f5688f34e7994928c8ff87831f16b61622b5fd7725833d0a1992634a5623e2ff38260405161016591906103cc565b60405180910390a26101906040518060600160405280602181526020016105c36021913982336101fc565b50565b60008060008373ffffffffffffffffffffffffffffffffffffffff1673ffffffffffffffffffffffffffffffffffffffff168152602001908152602001600020549050919050565b60006a636f6e736f6c652e6c6f679050600080835160208501845afa505050565b61029683838360405160240161021493929190610555565b6040516020818303038152906040527f1c7ec448000000000000000000000000000000000000000000000000000000007bffffffffffffffffffffffffffffffffffffffffffffffffffffffff19166020820180517bffffffffffffffffffffffffffffffffffffffffffffffffffffffff838183161783525050505061029b565b505050565b6102b2816102aa6101db6102b5565b63ffffffff16565b50565b6102c0819050919050565b6102c8610593565b565b600080fd5b6000819050919050565b6102e2816102cf565b81146102ed57600080fd5b50565b6000813590506102ff816102d9565b92915050565b60006020828403121561031b5761031a6102ca565b5b6000610329848285016102f0565b91505092915050565b600073ffffffffffffffffffffffffffffffffffffffff82169050919050565b600061035d82610332565b9050919050565b61036d81610352565b811461037857600080fd5b50565b60008135905061038a81610364565b92915050565b6000602082840312156103a6576103a56102ca565b5b60006103b48482850161037b565b91505092915050565b6103c6816102cf565b82525050565b60006020820190506103e160008301846103bd565b92915050565b600082825260208201905092915050565b7f416d6f756e74206d7573742062652067726561746572207468616e207a65726f600082015250565b600061042e6020836103e7565b9150610439826103f8565b602082019050919050565b6000602082019050818103600083015261045d81610421565b9050919050565b7f4e487b7100000000000000000000000000000000000000000000000000000000600052601160045260246000fd5b600061049e826102cf565b91506104a9836102cf565b92508282019050808211156104c1576104c0610464565b5b92915050565b600081519050919050565b60005b838110156104f05780820151818401526020810190506104d5565b60008484015250505050565b6000601f19601f8301169050919050565b6000610518826104c7565b61052281856103e7565b93506105328185602086016104d2565b61053b816104fc565b840191505092915050565b61054f81610352565b82525050565b6000606082019050818103600083015261056f818661050d565b905061057e60208301856103bd565b61058b6040830184610546565b949350505050565b7f4e487b7100000000000000000000000000000000000000000000000000000000600052605160045260246000fdfe5a52506f696e747320726571756973697461646f733a2025732070617261202573a2646970667358221220c03e6c69556c422d9f5aeb7c901786f243e90424cd14a77e56a900c31b36997d64736f6c634300081b0033556562612c20657520736f7520756d20636f6e747261746f206520657520736f7520696e74656c6967656e7465",
  "linkReferences": {},
  "deployedLinkReferences": {}
}